:020000040800F2
:1000000000500020A99600085597000819820008A2
:100010005597000855970008559700080000000004
:1000200000000000000000000000000055970008DC
:100030005597000800000000559700080982000845
:1000400055970008559700085597000855970008E0
:1000500055970008559700085597000855970008D0
:1000600055970008559700085597000855970008C0
:1000700055970008559700087181000855970008AA
:1000800055970008559700085597000855970008A0
:100090005597000855970008559700085597000890
:1000A00055970008398100085597000849810008D4
:1000B000298100081981000809810008B981000818
:1000C000B1810008B5810008AD810008559700088E
:1000D0005597000865810008598100085597000868
:1000E0005597000855970008559700080000000034
:1000F0000000000000000000000000000000000000
:0C01000000000000000000005FF808F1A3
:10011000BE4B2DE9F04FB3F90600BD4B91B01D6801
:100120002B89984210DBB0F5FA6FEA7908DAC11A28
:100130004A43A3F5FA6392FBF3F36433049305E0B7
:10014000C2F16402049201E064210491B14C0021E7
:10015000B4F81E310A460693AF4B1E6894F9EE3090
:10016000B2465B429BB20793A84B069FCB5E0593BA
:10017000DB1B03F2F31C40F2E637BC4503D8002B2F
:10018000B8BF5B4201E04FF4FA73022ADFF89882AD
:1001900036D096F85D7127B1BB42CCBFC7EB0303E5
:1001A0000023642793FBF7FC9C4F6FF0630B37F839
:1001B0001C900BFB0C3B0CF1010C37F91CC0CDF86B
:1001C00020C0089F0FFA89FCCCEB070C0CFB0BFC42
:1001D00064279CFBF7FCCC4428F801C005EB020C1B
:1001E0009CF804C003FB0CFC8D4B9CFBF3F33B44DD
:1001F000DDF810C09BB20CFB03F393FBF7F716E09E
:1002000096F85E7127B1BB42CCBFC7EB0303002356
:10021000DDF81CC003FB0CF7A8F80470AF79002BC5
:10022000B8BF5B427B437E4F93FBF7F76437B3184D
:1002300093F80180DFF818C207FB08F8642398FBE5
:10024000F3F802F80C809AF80B900CF1030807FB06
:1002500009F999FBF3F902F808909AF815800CF166
:10026000060C07FB08F797FBF3F702F80C70059BE9
:10027000069FDFF8B4B1BB4204DA3BF801707F425D
:100280002BF801700132032A01F102010AF1010A7F
:100290007FF46AAF5F4FB7F82021904205DBB0F5DD
:1002A000FA6FA8BF4FF4FA6000E01046801A4FF4CE
:1002B0007A714843C2F5FA62B0FBF2F24FF064087B
:1002C000564D92FBF8F105EB4100B0F818C06FF005
:1002D000630000FB012205EB4101B1F91A000FFA9E
:1002E0008CF1411A4A4392FBF8F84E4AC4441188F3
:1002F0004D4E4A06ABF806C040D54C4A10884C4AD1
:100300001288801A00B208F039FC4A4908F08AFCC9
:1003100080460BF0D9F9814640460BF049FA8046F9
:10032000B6F9020008F02AFC8246B6F9000008F08F
:1003300025FC4946029008F075FC4146844650462B
:10034000CDF80CC008F06EFCDDF80CC0014660462C
:1003500008F05EFB08F02CFE49463080504608F05D
:1003600061FC029A81464146104608F05BFC01465A
:10037000484608F04FFB08F01BFE7080B96840F655
:1003800002020A402C4E002A00F0B7802B4A0620B9
:10039000B2F800902A6B914495F83420C5F830905B
:1003A0000132D2B2B2FBF0FC85F8342000FB1C22F3
:1003B00012F0FF0F40F0A1808B0711D503F09DFCD8
:1003C0001F4A204912780988914206D21E4909889D
:1003D000914234BF0022012200E0022285F835203C
:1003E000BA68100540F18780184B0A49D3F800809D
:1003F000BBF906A098F80830B1F8DE00012BAAF589
:100400007A7A27D062D3022B3ED061E00608002022
:10041000A0080020D400002068080020180B00204D
:100420000CFEFFFFAE080020000A00205C08002040
:10043000B208002035FA8E3CA3160020FA090020ED
:10044000600E0020640E0020620E00205C0E002072
:10045000260B0020AA6B082392FBF3F1521A92FBA1
:10046000F3F3AA639BB240F6E44253430021A98709
:10047000B8F806104FF47A72C1EB13335343B8F94E
:10048000042093FBF2F322E03178B8F806304907F4
:100490002B641DD50292039305F0F2FC029A039B94
:1004A00020B912F0100F18BF4FF0000A0AFB0AF132
:1004B000322291FBF2F29244B8F9042002FB0AFACC
:1004C0004FF47A729AFBF2FA534400E000232B6453
:1004D0002B6C4FF47A7203FB09F3D5E9120193FBFD
:1004E000F2F3C01841EBE371C5E912019D4A002304
:1004F00008F0A4FD286500232B639B499B4A0B68E9
:10050000894613F4805318BF012382F85430BB6826
:1005100095F83580D9052CD5377807F00407FFB258
:1005200006F012FF10B1381C18BF012010F0010FA7
:10053000DFF878A211D0012385F855308C4BBAF939
:1005400000101A6810785378034403EB8303994230
:1005500003DD864B022283F8552006F0F5FE18B124
:1005600017B9022385F85530BAF900300BB985F870
:10057000553095F855207D4B022A02D14C204E2152
:100580001EE0012A06D153204D214C220B4603F0D8
:100590004DFA28E093F85420012A04D15320014653
:1005A00002464D23F3E7B8F1020F04D15320014670
:1005B0004D224423EBE7B8F1010F03D153204D2125
:1005C0000A46F6E76B490A88120603D553204D21E7
:1005D0000246DBE7684A12781AB1192003F0FCF9E9
:1005E00001E083F856203278570704D5634B4FF467
:1005F00080425A615AE0D9F80030D80703D46049E4
:1006000042F001020A705F4A12881AB15E4A12680B
:10061000910705D45D4A1288003218BF012200E01C
:10062000012242B1554AD16881F48041D1603278CB
:1006300022F001023270564A1278120703D432783F
:1006400022F001023270DB0203D5337823F001037C
:10065000337033784F4A13F0010F09D00023AB6594
:1006600003F180434FF4804103F5883319610CE0B6
:10067000A96D136849B93D4903F5F42303F5907357
:100680008B653E4B4FF480415961AB6D12686BB185
:10069000D21A002A0ADB394A03F5F423D16803F59C
:1006A000907381F48041D160304A93653A4B1A7857
:1006B0009946002A00F09A80EB6D002B00F0B1867D
:1006C000E86D2A4C03685B689847002800F0A9860B
:1006D000E06D03689B6898470928014601D03F28D0
:1006E00077D14FF000082E6E2C4F44462EB12C4887
:1006F000396832460AF002FE10B9B84604B93C46E1
:10070000284B0C379F42F1D3D4B12B6E2268174887
:10071000D75CD8F80020D15CB94211D15A1C51B92C
:100720002D2B08D8026603442027024483F8647006
:1007300082F8641004E02B4483F864702A66E4E7CE
:100740002B6E0BB1444537D0174806F04DFD44459C
:100750002ED854F80C0B06F047FDE86D092106F081
:10076000A8FCF4E7407E050000080020180B0020DC
:1007700030080020AE080020610800200010014071
:10078000A31600206208002058080020A0160020B0
:100790004C08002094160020A216002030D8000833
:1007A0007C0B0020FCD8000855E30008EE07002071
:1007B000B74806F019FD00262A6EB64B9642BFF4E4
:1007C0007FAF03F16402915DD86D06F072FC0136D3
:1007D000F2E7236E002B41F01981042841F01081CB
:1007E00004F1640004F066F800F01BBEAA4D95F811
:1007F0004A30012B40F01086A64E2B68C6F8945064
:10080000C6F898303746D7F89800DFF88882036832
:100810005B689847002800F0EF85D8F898000368D7
:100820009B689847D8F8943093F848201AB9242840
:1008300039D1012234E0012A04D14D280CBF022213
:1008400000222DE0022A04D13C280CBF0322002202
:1008500026E0032A09D140284FF0000220D81A715F
:10086000DA715871987104221AE0042A06D19A7933
:1008700083F8490050409871052211E0052A28D1DB
:1008800059791A799142997906D941409971511C47
:100890001971134418721CE081420CBF0622002219
:1008A00083F8482015E07D4B1B785B0711D4232883
:1008B000D8F8983040F0BD85794A01217948117007
:1008C000C8F85C30C8F89C3006F08EFC704806F022
:1008D0008BFCD7F89420DFF8BC8192F84830062BC7
:1008E00091D192F84930452B00F0548500F2B48044
:1008F0002A2B00F0158546D8052B00F0FC811CD86A
:10090000022B00F0D4810DD8012B40F09F850320ED
:1009100006F042FC002006F00FFC012006F00CFC63
:100920000820D1E1032B00F0D281042B40F08E850A
:10093000062006F031FC0026D4E1242B00F0C88408
:1009400007D8222B40F08285A02006F025FC002647
:10095000A7E3262B00F0C284282B40F07785524E67
:10096000072006F019FCB6F90A0106F018FCB6F9E2
:100970000C0106F014FC96F80E0106F0DDFBB6F94A
:10098000100100F0E8BC382B00F0B7842BD8322BD4
:1009900000F0CC8419D82C2B40F05885424E08200A
:1009A00006F0FAFB96F81A0106F0C6FBB6F922012A
:1009B00006F0F5FBB6F91E0106F0F1FBB6F92001D1
:1009C00006F0EDFB96F81B017EE1342B00F08583E9
:1009D000362B40F03B85344E0E2006F0DDFB06F151
:1009E000100700F0BBBC3D2B00F081820CD83A2BE5
:1009F00000F04D823B2B40F02985012006F0CCFB16
:100A00002A4B1B6818785FE1402B00F09684422B3C
:100A100040F01C85244E102006F0BEFB707906F0D5
:100A20008BFBB06806F04AFB96F81A0106F084FBCF
:100A3000B6F9E80006F0B3FBB6F9EA0006F0AFFB42
:100A4000B6F9EC0006F0ABFBB6F90A0106F0A7FB1D
:100A5000B6F90C0100F07FBC6E2B00F01C8200F296
:100A6000EF80662B00F08C8100F2D180492B00F0E2
:100A700049821DD8462B40F0E9840D2006F08CFBFE
:100A8000002006F059FB002006F018FB00F08DBC9A
:100A90005AE30008180B0020B00D0020A316002018
:100AA000A21600208AE30008D40000206808002075
:100AB000642B00F03C81652B40F0C8840B2006F0CD
:100AC0006BFBCC4BB3F9000006F069FBCA4B1888EE
:100AD00000B206F064FBC94B1B68C3F3C000C3F34C
:100AE0008002800040EA4200C3F340021043C3F397
:100AF000401240EAC20003F01003184306F04FFB17
:100B0000BF4B1A8812F0010F0CBF0023022312F012
:100B1000020F0CBF0026042612F0040F0CBF0027A2
:100B20001027049312F0400FB64B0CBF4FF0000C8F
:100B30004FF0200C12F0100F1B680CBF00214FF477
:100B4000007112F0200F05960CBF00264FF480664E
:100B500012F4807F069708910CBF00274FF40067BE
:100B600003F4802103F4002002F0080BCDF81CC030
:100B700003F4807A03F4804C09960A9703F4003654
:100B800003F4803703F4805903F4005803F4004E53
:100B90000B9103F4801103F0C00343EA0B0343EA13
:100BA0000A0343EA090343EA080343EA0C0343EA5E
:100BB0000E033B4333430B9EDDF814C03343034322
:100BC0000B439149079E0F780699C7F380073B4373
:100BD000049F12F4007F43EA070343EA0C0343EA4D
:100BE0000103089F43EA0603DDF824C043EA070334
:100BF0000A9943EA0C0343EA01030CBF00224FF4B5
:100C000000121A43814B00201E780346A3E0692B93
:100C100000F01A8107D8682B40F01884102006F0E5
:100C2000BBFA002608E16C2B00F021816D2B40F00F
:100C30000D84062006F0B0FA002006F03FFA2AE301
:100C4000742B00F091820FD8702B00F08A81C0F0D5
:100C50006081722B00F0D482732B40F0F783082060
:100C600006F09AFA01260FE3A02B00F023830BD89D
:100C7000752B00F00A82772B40F0E883634F002643
:100C8000387806F089FAAFE2F02B00F00683FE2BED
:100C900040F0DC83082006F07FFA002006F07FFA9F
:100CA000002006F07CFA002006F079FAF3E2042036
:100CB00006F072FA432006F03FFA4C2006F03CFAA8
:100CC000462006F039FA4C2006F036FA89E3032074
:100CD00006F062FA012006F02FFA082006F02CFA3E
:100CE0000120F1E74A4B1B68985D013606F024FAB3
:100CF000042EF7D1CFE21A2006F04EFA0026454B1B
:100D0000985D013606F018FA0B2EF8D10026424BFA
:100D1000985D013606F010FA082EF8D100263F4BF8
:100D2000985D013606F008FA072EF8D159E307203E
:100D30003B4E06F031FAE72006F0FEF9707906F036
:100D4000FBF9002006F0F8F996F82B31002B0CBFC8
:100D500004200C202DE3B3420CD232495F5C012108
:100D600001FA07F7174218BF994003F1010318BFB2
:100D70000843F0E706F0A2F9294B93F8A005A3E792
:100D8000122006F009FA284B284E1B88B3F5806F15
:100D900022D90027F05F082390FBF3F0023706F01A
:100DA000FEF9062FF6D1224EB6F9000006F0F7F94B
:100DB000B6F9020006F0F3F9B6F904001D4E06F08C
:100DC000EEF9B6F9000006F0EAF9B6F9020006F00D
:100DD000E6F9B6F90400BEE2B6F9000006F0DFF964
:100DE000B6F9020006F0DBF9B6F9040006F0D7F90F
:100DF000D9E700BFFA0900202E150020580800206E
:100E0000AE08002000080020A3160020AE0D002030
:100E10004C000020C2E30008CEE30008D7E300083E
:100E2000D4000020980D002002000020A40900201A
:100E30009A160020C4080020BC4B985D013606F0CD
:100E40007BF9102EF8D1CCE2B94F0026387840005B
:100E500000F0FE0006F0A0F93B789E4280F0C182CF
:100E6000B44B33F9160006F09AF90136F4E7B24EA6
:100E7000062006F091F9B6F9000006F090F9B6F9EF
:100E8000020006F08CF9AD4BB3F9000063E20420D8
:100E900006F082F98CE2072006F07EF9A84B4FF6A7
:100EA000FF76187806F048F9D8F85000B042A8BF8D
:100EB000304620EAE07000B206F071F9A14BB3F9B8
:100EC000000006F06CF9A04B93F80F314BB1D8F845
:100ED00040300A205843B042A8BF304620EAE070B4
:100EE00003E0D8F8400000F30F0000B233E2964E62
:100EF000022006F051F996F8270106F01DF996F840
:100F00002601E1E6022006F047F98F4BB3F90C0009
:100F100021E28E4E0A2006F03FF933680027187848
:100F200006F00AF93368B046587806F005F9D8F8A3
:100F30000030864E3B441879013706F0FDF8032F48
:100F4000F5D13368D87906F0F7F83368987806F069
:100F5000F3F83368D87806F0EFF83368B3F908008F
:100F6000F9E17B4F1E2006F017F93B6800261B783D
:100F7000022B77D13B6806F1080253F8220075492D
:100F800007F050FE0AF0D6FBFA28A8BFFA2020EAA4
:100F9000E070C0B206F0D0F83B686F4903EB8603FF
:100FA000D86A07F03FFE0AF0C5FBFA28A8BFFA206E
:100FB00020EAE070C0B206F0BFF83B6806F10E020E
:100FC00053F82200654907F02DFE0AF0B3FB6428B0
:100FD000A8BF642020EAE070C0B2013606F0ACF889
:100FE000032EC7D1072E3B682AD1586C594907F008
:100FF00019FE0AF09FFBFA28A8BFFA2020EAE07049
:10100000C0B206F099F83B685249986C07F00AFEA6
:101010000AF090FBFA28A8BFFA2020EAE070C0B2DC
:1010200006F08AF83B6893F84C0007F0A3FD0AF03D
:1010300081FBFA28A8BFFA2020EAE070C0B20BE0DA
:101040003344587806F078F83B683344D87A06F091
:1010500073F83B683344587D013606F06DF80A2E6C
:10106000C0D1BEE13B683344587806F065F83B6870
:101070003344D87A06F060F83B683344587D013633
:1010800006F05AF80A2EEDD1ABE12F2006F084F8D5
:10109000334E16F8010F002800F0A38106F04CF83B
:1010A000F7E72B4B06F11C021B680C2103EB8203B4
:1010B0005F1D2C4A5B79013601FB0323187A06F089
:1010C0003BF8787806F038F8B87806F035F8F87814
:1010D00006F032F8282EE4D183E1482006F05CF8CF
:1010E00000274FF0060808FB07F8194B08F5887829
:1010F0001B680137984498F80A0006F01DF898F824
:10110000050006F019F898F8060006F015F898F8AA
:10111000070006F011F898F8080006F00DF898F8A6
:10112000090006F009F80C2FDBD15AE1D80A00209B
:10113000480E002006080020C40900205C0800209A
:10114000600E002004080020D4000020A008002029
:1011500068080020000020410000C84200007A44D6
:10116000FBD800082CD900084FF000090126002701
:10117000BE4B1B789F4224DABD4BF95C0023BD4A6D
:1011800003EB020A9A5C8A4204D00C33B3F58A7FDF
:10119000F5D114E0DAF804000AF0A8F883460EB995
:1011A000B04601E081440AE0D84508DADAF80430B4
:1011B00013F8080005F0C0FF08F10108F4E7013753
:1011C000D6E7002E00F00D815FFA89F005F0E4FF0C
:1011D0000026CCE7A74A99189A5C82420CD00C33BF
:1011E000B3F58A7FF6D101363B789E4280F0F980D4
:1011F0009F4BF05C0023EDE7087A05F09DFFF2E7D6
:10120000162005F0C9FFB4F91E0105F0C8FFB4F9B6
:10121000D00005F0C4FF984EB4F9D20005F0BFFF2E
:10122000B4F9D40005F0BBFF3368B3F9680105F0E9
:10123000B6FF002005F080FF002005F07DFF0020B4
:1012400005F07AFF94F80F0105F076FF94F81C0181
:1012500005F072FF002005F06FFF3368B3F952000C
:101260000A2390FBF3F005F09AFF94F8060105F0CD
:1012700063FF94F8080105F05FFF94F8070105F09B
:101280005BFF94F809011FE5F0B2013605F054FF49
:10129000092EF9D1A5E000205DE0774E042005F08D
:1012A0007BFF3368B3F9560005F079FF3368B3F973
:1012B000540050E00C2005F06FFF704B186805F0EB
:1012C000FDFE6F4B186805F0F9FE6E4B186870E074
:1012D000042005F061FF6C4B98686AE06A4E0620B6
:1012E00005F05AFFB6F9E80005F059FFB6F9EA0033
:1012F00005F055FFB6F9EC002DE0634E042005F033
:101300004BFF96F8060105F017FF96F8080105F067
:1013100013FF96F8070105F00FFF96F80901D3E4D3
:10132000012005F039FF584B5879CDE4012005F034
:1013300033FF554B93F81C01C6E4082005F02CFF41
:101340000026514B334493F81201013605F0F4FEA8
:10135000082EF6D145E005F022FF42E096F8300174
:1013600005F0EAFEB6F9320105F019FF96F83401EE
:1013700005F0E2FE96F8350105F0DEFE96F837013D
:1013800005F0DAFE083696F82E0105F0D5FEBE42CD
:10139000E4D126E0132005F0FFFE00263B4B985DCC
:1013A000013605F0C9FE0B2EF8D1002005F086FEAF
:1013B000002005F083FE14E040F2D981D42B0DD03B
:1013C00000F2F082D22B40F0E782314B1B7803F021
:1013D000040303F0FF06002B00F0C682002005F096
:1013E000DBFE2C4ED6F89430987905F0A5FED6F8A1
:1013F0009430002283F84820264B93F8A0305BB14C
:10140000286805F051FE18B9322005F004FEF7E710
:1014100004F0C2FD03F017FA1F4B4C359D427FF4D8
:10142000E6A91E4B9B68002B00F05F831C48984781
:101430005BE31C4B1B681B7883427FF44AAA1A4A61
:101440001A4B1A6003F0FFF9FFF743BA442B03D19C
:10145000012386F8A030C1E700F24D81332B27D15C
:1014600005F060FC084B83F81C01B7E7AE0D0020C7
:10147000980D00202CD9000868080020E8F7FF1F0D
:10148000ECF7FF1FF0F7FF1FD4000020C2E30008B5
:10149000A3160020180B0020480E0020E4080020AE
:1014A000BA0B0020E00B0020EFBEADDEF04F0020B5
:1014B0007ED8252B0CD1D84B00229A6005F03CFC3D
:1014C000064605F039FC06EB004006F0B7F885E764
:1014D00031D8212B82D0232B40F08F8205F022FCC3
:1014E000272802D904F0DEFF78E7CC4F00F11C0872
:1014F0003B6803EB880805F015FCC94B08F10506AD
:1015000003F58A72197A814203D00C339342F9D1E0
:10151000E8E71B7888F8053005F004FC707005F0EA
:1015200001FCB07005F0FEFBF070396801F1750048
:1015300002F0B6FF52E7292B11D105F0FDFBB64EA4
:10154000A6F80A0105F0F8FBA6F80C0105F0EAFB85
:1015500086F80E0105F0F0FBA6F810013EE72D2BF2
:1015600015D105F0DFFBAC4E86F81A0105F0E4FB5F
:10157000A6F8220105F0E0FBA6F81E0105F0DCFB51
:10158000A6F8200105F0CEFB86F81B0126E7272BE5
:1015900040F0338205F0D0FB9F4EA6F8E80005F03E
:1015A000CBFBA6F8EA0005F0C7FBA6F8EC0015E7B0
:1015B0003C2B09D1994E376805F0B4FB387033687D
:1015C000187805F08FFE09E75CD8372B21D15379C5
:1015D0000E2B87D1904E06F1100705F0A3FB86F87D
:1015E000300105F0A9FBA6F8320105F09BFB86F857
:1015F000340105F097FB86F8350105F093FB86F87A
:10160000370105F08FFB083686F82E01BE42E4D183
:10161000E4E6392B11D105F085FB7F4E86F80601F3
:1016200005F080FB86F8080105F07CFB86F80701D1
:1016300005F078FB86F80901D0E6352B40F0DD8116
:1016400005F070FB0B283FF64DAF06277843734B30
:1016500000F588701F68074405F064FB03283FF617
:1016600041AFB87205F05EFB787105F05BFBB871B5
:1016700005F058FBF87105F055FB387205F052FB88
:101680007872ABE6412B00F0AD81432B26D1624E40
:1016900005F048FB0023B36005F04EFB074605F05C
:1016A0004BFB07EB004005F0C9FF05F03BFB86F85C
:1016B0001A0105F041FBA6F8E80005F03DFBA6F88D
:1016C000EA0005F039FBA6F8EC0005F035FBA6F8BA
:1016D0000A0105F031FBA6F80C017FE63E2B40F035
:1016E0008C8105F01FFB4C4E86F8270105F01AFB94
:1016F00086F8260172E6CF2B7FF45EAE05F01CFB68
:101700006FF4AF67C3199BB2434EC62B98BFA6F8C0
:101710001E0105F011FBA6F8D00005F00DFBA6F8A0
:10172000D20005F009FB3D4FA6F8D400D7F80080A1
:1017300005F002FBA8F8680105F0F4FA05F0F2FAEA
:1017400005F0F0FA05F0EEFA86F80F0105F0EAFA76
:1017500086F81C0105F0E6FA3F6805F0EDFA00EBAB
:1017600080004000A7F8520005F0DCFA56E7CA2BCB
:1017700040F08E80294F00263B681B78022B6ED1EB
:10178000D7F8008005F0CEFA07F0F4F9254907F004
:10179000FDFA06F1080948F82900D7F8008005F09D
:1017A000C1FA06F10A0308EB830807F0E3F91E49C2
:1017B00007F0ECFAC8F80400D7F8008005F0B2FA98
:1017C00007F0D8F9194907F0E1FA06F10E090136D8
:1017D000032E48F82900D3D1072ED7F8008027D14F
:1017E00005F0A0FA07F0C6F90E4907F0CFFAC8F8DD
:1017F0004400D7F8008005F095FA07F0BBF90949D5
:1018000007F0C4FAC8F84800D7F8008005F08AFA53
:1018100088F84C001FE000BFD400002068080020BA
:101820002CD90008000020410000C84200007A4482
:1018300005F078FA08EB06035870D7F8008005F039
:1018400071FA08EB0603D872D7F8008005F06AFA3F
:1018500008EB0603587501360A2EBDD1BEE5D7F850
:10186000008005F05FFA08EB06035870D7F8008097
:1018700005F058FA08EB0603D872D7F8008005F097
:1018800051FA08EB060301360A2E5875E7D1A5E593
:101890001BD84A2B04D105F04FFA954B98819DE552
:1018A000C82B40F0AA8057797F08122F3FF61AAE56
:1018B0000026BE4206D205F03FFA8E4B23F81600F2
:1018C0000136F6E701228C4B0BE0CD2B0BD014D95F
:1018D0008A4B1B7859073FF581AD894B1A7842F046
:1018E00004021A707AE5854B1B7858073FF576ADF0
:1018F000844B4FF4C8721A8070E5CC2B7DD153799C
:101900000A2B7FF4EFAD804E376805F00BFA387084
:10191000376805F007FA787005F004FA3368642830
:10192000A8BF6420187105F0FDF933686428A8BFCA
:101930006420587105F0F6F93368FF28A8BFFF202E
:10194000987105F0EFF93768642828BF6420F871B2
:1019500005F0E8F9B870376805F0E4F9F870366812
:1019600005F0EAF9308139E505F0DCF9604B022831
:1019700083F8A0050BD983F8A06508E0D02B3CD1F3
:101980005E4B1B785E073FF529AD02F0C3FB03F009
:101990001BFA03F0C1F821E5F0D905F0CDF95B4B56
:1019A00018801BE5EF2B0BD1594E376805F0C4F9B1
:1019B000A7F85600366805F0BFF9A6F854000DE503
:1019C000FA2B04D14D4B1B785A07E0D515E0D62BE6
:1019D00013D1002605F0B0F94E4B98530236102E65
:1019E000F8D1FBE4002605F09DF9414B3344013664
:1019F000082E83F81201F6D1F0E404F053FDF0E470
:101A00000C2824D1444805F0EFFB1EE00C28F9D047
:101A10000A2920D1414805F0E7FB2B6E002B40D16D
:101A20002B662B44002283F8642095F86430232B26
:101A300042D13B480021302209F017FC00232B66DD
:101A400099F80030002B3FF4ECAC36480EE07F29CB
:101A500013D1FEF735BE0D29DCD07F290AD1013B19
:101A6000236600222344304883F8642005F0BCFB41
:101A7000FEF726BE2F2B3EF623AEA1F12002D2B2F6
:101A80005E2A3EF61DAE13B920293EF419AE5A1C4B
:101A9000E86D2B442A6683F8641005F00AFBFEF714
:101AA0000FBE224A591E02F16400085C202801D1B1
:101AB0000B46B3E71366B4E71D4B194E0E92009325
:101AC0000DA81C4911220C230D9609F068FC044650
:101AD00038B1006809F00AFC0130A3683044984727
:101AE000A7E7154805F080FBA3E711B0BDE8F08F2C
:101AF000D400002006080020F4070020A3160020D0
:101B00004C08002062080020A0080020B008002037
:101B100068080020FC0A00205FE300082DE70008A9
:101B20007C0B00205AE3000886E30008180B002015
:101B30006D6C000830D800086AE300082DE9F04F0A
:101B4000674B684C99B023600023636004F03AF956
:101B5000274618B902F0DEFA03F036F902F0DCFF8E
:101B6000614B624C1A78624942F001021A700022FD
:101B70000C920D920E924FF4E0120F922268887B25
:101B800042F480322260A26942F01002A26123680E
:101B900003F400330D930C9B01330C930D9B1BB985
:101BA0000C9BB3F5A06FF2D12268504B12F40032B7
:101BB00001D0022315E0196841F0010119600C926F
:101BC000236803F002030D930C9B01330C930D9BD0
:101BD0001BB90C9BB3F5A06FF2D123689D0733D5D9
:101BE00001230E93434B444D1A68404942F01002C2
:101BF0001A601A6822F003021A601A6842F00202A0
:101C00001A606368636063686360636843F4806359
:101C100063603A4B1A6822F070421A60384A1560C5
:101C2000656825F47C1565601D6845F000451D60FC
:101C3000344DEB6823F40043EB604FF4E0130F9353
:101C40000E9B012B01D118E0FEE7022B19D168B1E0
:101C50000F9BB3F5801F02D14FF4A01305E00F9B3B
:101C6000B3F5E01F02D14FF400130F9361680F9B8F
:101C70000B4343F48033636003E04B6843F4601329
:101C80004B60236843F0807323602168174B890100
:101C9000FBD5596821F003015960596841F00201F0
:101CA00059606368114903F00C03082B0793F8D1BE
:101CB0004868154B00F00C00042803D0082804D015
:101CC0000D4900E0116819602AE048684E68C0F3C9
:101CD0008340F60300F102001AD40C491EE000BF55
:101CE00005720008C00B00208C1600200010024076
:101CF000D40000200020024000127A0004100140AD
:101D000010000020001001405800002000093D0094
:101D1000496811F4003F116818BF4908484318602A
:101D20006168DFF8B092C1F303110A4492F804A08D
:101D30001A6818AE22FA0AFAC3F800A0AB684FF08E
:101D4000000813F4004F924B14BF022201221A70B4
:101D5000904B9148C9F80C30A36943F00103A3618B
:101D6000636A43F080736362A36943F01C03A36159
:101D70004FF6FF7326F8183D31468DF84A8005F07E
:101D8000C5FC8648314605F0C1FC3146844805F063
:101D9000BDFC844B30465A6842F000725A6004F031
:101DA000B1FC129B804ADFF828E2B3FBF2F34FF458
:101DB0007A72BB60BAFBF2FA7C4B0AF1FF325A60CE
:101DC000F02289F82320B4460722C3F808801A605D
:101DD000BEE80F00ACE80F009EE80300A3698CE8A2
:101DE000030043F01003A361A3690DF14C0843F015
:101DF0001003A361A3690DF1640943F01003A3610B
:101E00004FF480432B614FF400532B614FF4004398
:101E10002B6158F8040C414608F1080805F076FCDF
:101E2000C845F6D1624B9A68120756D593F81A2125
:101E3000012A52D85F4960480A88B0F800E093F858
:101E40001B3142EA0E4E5D4A89469645924640F065
:101E5000A8830023002B40D0594BDFF83C81186841
:101E60004FF4005BC5F814B031461290404605F0BF
:101E70004DFC0823C8F810303C2005F0CCF8C5F81C
:101E800010B04FF0000B4A4890F81B319B451BDA0D
:101E90004FF480414FF400420823296178202A61E1
:101EA000C8F8143005910492039305F0A9F8059938
:101EB000049A039B696178206A61C8F8103005F0C4
:101EC0009FF80BF1010BDEE73B49B9F800300A88B7
:101ED00043EA0243534540F09383642005F09BF8A6
:101EE00038480021A02209F0C0F9E36943F0070354
:101EF000E361A36943F4006343F00C03A36100238F
:101F0000314C002504F10C029D5401330E2BF7D106
:101F1000FF23DFF8C490A376E3762377637729461F
:101F2000182204F12400C4F8209009F09EF9274BF0
:101F300030461A785B7884F82420A9F5977292F8D5
:101F4000058084F830302946A9F58F73102284F873
:101F50003C80236409F089F9B8F10E0F02D0B8F182
:101F6000080F02D101238DF85230114C94F9303111
:101F7000012B02D1B4F832218ABB0D4890F93831D7
:101F8000012B2BD1B0F83A31003318BF012326E0E2
:101F9000A51600200005FA0500080140000C0140CC
:101FA000001001400000014040420F0010E000E03E
:101FB000D4000020086C0040106C004007B0F750BF
:101FC00064DA000840150020C00B00205C000020EF
:101FD0004CDA000800ED00E0020200200023AB49CB
:101FE0008DF84D308B68C3F340028DF84E20C3F35B
:101FF00080128DF85020C3F340328DF84820C3F38F
:10200000C0328DF84B2013F4006204D091F80E21F9
:10201000551E6A426A419D4CC3F380408DF84C20A6
:102020008DF84F00C3F30042B4F8E0004FF47A7427
:102030008DF8512003F00101C3F3C002ADF8564002
:10204000DC048DF849108DF84A20ADF8540004D511
:102050008E4BB3F8DC30ADF85630B0F5FA7F8B48D4
:1020600084BF0023ADF8563090F82431884887F8B3
:102070004430002387F8453043709DF85230002BE0
:1020800014BF0223002301B902B1013381490026A4
:1020900001EB8303DB69B0460693069C4FF6FF72A3
:1020A000A35B934200F0CA80DAB2DFF828B29DF851
:1020B0004D104FEA021A1B0A0BEB0A0419B1023A3F
:1020C000012A40F2B780022B3AD19DF84820002A1D
:1020D00000F0B0805FFA88F21C2042436E494FF056
:1020E00000098D18012085F8018085F8029085F897
:1020F0000A908854A168E27B6068ADF84010EC60FB
:1021000010A98DF843308DF8422005F0FFFA217BAD
:102110004A465BF80A0004F0C9F9204602F019FCAF
:102120005E4BC5F818902B615D4B20466B6105F145
:10213000100105F1140201F073FD08F1010879E0C6
:10214000012B3CD19DF84930002B73D0FF2387F839
:102150008C3087F88D30A3680025E27B6068ADF88D
:10216000403010A9022387F89050C7F89C408DF8A2
:1021700043308DF8422087F84850FD643D657D6509
:10218000C7F8885087F88E5087F88F5005F0BEFA50
:10219000217B2A465BF80A0004F088F9204602F009
:1021A000D8FB404B4049C7F8A030404BC7F8A85077
:1021B000C7F8A43020460A1D01F032FD3AE0032B97
:1021C00038D19DF84F20BDF8563052B197F846509F
:1021D000204608214FF6FF7201F030FE07EB85051F
:1021E0001FE0BDF85420324DB2F5FA7F95F84690C5
:1021F0000DD930492046B1FBF2F292B2082101F02C
:102200001DFE05EB8905C5F870012B4B0CE02B4931
:102210002046B1FBF2F292B2012101F00FFE05EB74
:102220008905274BC5F87001C36097F84630013324
:1022300087F8463002361C2E7FF42FAF214B042244
:102240001A700024204D214B254423441034402C87
:102250000FCB85E80F00F5D103F032FE1C48037860
:1022600043F004030370002005F0F6FC074BB3F8BD
:10227000E80048B9B3F9EA2072BBB3F9EC30D3F106
:10228000010338BF002328E0002326E0D40000200B
:10229000050C00204CDA0008500C0020A96600084C
:1022A000016C0008276B0008600C0020296C0008F6
:1022B000C00B002000127A00496C000840420F0059
:1022C000396C0008A4160020180A002078DA0008EB
:1022D0008C16002018E60008034613F0010340F0B6
:1022E0008A80B34A00B2137506F048FCB14906F083
:1022F00099FCB14E0546B6F9EA0006F03FFCAD493F
:1023000006F090FC0446B6F9EC0006F037FCA9494B
:1023100006F088FC8046284609F0D6F9064628468D
:1023200009F046FA8246204609F0CEF905462046D5
:1023300009F03EFA0446404609F0C6F98146404697
:1023400009F036FA31468046484606F06BFC3146C5
:102350008346404606F066FC49460690504606F025
:1023600061FC41460890504606F05CFC2946099005
:10237000484606F057FC4146C7F8A00105F1004069
:1023800006F050FC2146C7F8A401C7F8A8410898F8
:1023900006F048FC0146069806F03CFB2146C7F8CB
:1023A000AC01099806F03EFC0146584606F030FBA9
:1023B0002946C7F8B0010AF1004006F033FC214677
:1023C000C7F8B401584606F02DFC0146099806F0FE
:1023D0001FFB2146C7F8B801069806F023FC01460A
:1023E000089806F017FB3146C7F8BC01284606F0EE
:1023F00019FCC7F8C001714B6F4D1B68DFF8FCB1C9
:10240000B3F85230B5F8F04006930023C7F8C43152
:1024100095F8EF6095F8F7A08BF8003005F01AFEFC
:102420000746002800F0F183654A664BBB2C136019
:10243000654B90465360654BD3605D4B01D90122DB
:102440000EE0612C01D902220AE0292C01D90322D5
:1024500006E0132C01D9042202E0092C0BD9052235
:102460005A755B4B01221A705A4BB3461A6842F0F8
:1024700001021A600EE00622F2E74FF0010909FAA4
:102480000BF240F2B23414405CB1BBF1010F5CD9E5
:102490004FF0000B504A0021BBF1090F1170F7D823
:1024A000EBE712F04D0FF0D04C4EC6F8C44105F0EA
:1024B000D1FD0028E9D006210A4610AB682005F0BE
:1024C00011FD9DF843309DF8452003EA090303FA06
:1024D00009F302EA090243EA82039DF8412002EA75
:1024E000090213430BD04B4502D186F8C84117E0CF
:1024F000022B02D186F8C89112E0052086E30DF187
:102500002F0368200C214A4605F0ECFC9DF82F3083
:1025100013F00F03F1D0043B18BF012386F8C83134
:102520002F4B304A1A60304A5A602C4A92F8C82120
:10253000002A14BF6E226F221A72254B03225A7092
:10254000244B1A6842F002021A60224E33689A073E
:1025500002D5234B1B689847D8F800309847234C86
:1025600000222270BAF1000F02D0BAF1020F4ED150
:102570001A4918ABC1F8CC2103F8202D1E200A21DE
:10258000012205F0AFFC002841D09DF84030482BD7
:102590003DD1174B174A1A60174A5A60002F70D165
:1025A00035E0013B092B8CBF0023012352E400BF1F
:1025B0001000002035FA8E3CD4000020680800206E
:1025C000E4080020917B00081580000890C1793D47
:1025D000500000205808002090160020C00B00205A
:1025E00050090020495E0008D57F00089816002099
:1025F000BC080020F1790008617F0008FA0800207B
:10260000C24B002283F81B2102F080FD65E4BAF181
:10261000010F33D895F8E4300BB1BD490B7095F834
:10262000E5300BB1BB4A137095F8E63003B1237067
:102630003368B94C13F0080F1CD0069A4FF0640AA7
:102640000FFA82F999FBFAF7384606F097FA8346B3
:102650000AFB179000B206F091FAB04906F0E2FAD0
:102660000146584606F0D6F9AD4906F0DBFAC4F843
:10267000D0010EE00023C4F8D0310AE04FF0000A88
:102680006DE7A84B0222DA70336843F00803336029
:10269000C0E7A54BA54F1A784FF00A0A42F0020294
:1026A0001A704FF400527A614FF480423A61FB682D
:1026B000192083F40053FB60FB680AF1FF3A83F4AE
:1026C0008043FB6004F0A7FC192004F0A4FC1AF07E
:1026D000FF0ADFF85892EAD14FF480434FF4005AD2
:1026E000C9F81030C9F810A033681B0709D5904B02
:1026F000C9F814A01B6898478E4B0122C9F810A096
:102700001A708D4BDFF854A21B68187B06F036FA5E
:102710008A4906F087FA08F0D7FF8146BAF8000028
:1027200006F02CFA494606F07DFA09F003F8844BCE
:10273000DFF8E4911880BAF8000006F01FFA0146AD
:10274000804806F023FB804906F020FB7B49C4F853
:10275000D401D8F80C0006F065FA7C4906F062FA5C
:102760007B4B16221860FF2109F5EC7008F07DFD07
:10277000002384F8D83133680122980784F8EE21C9
:1027800007D589F8D921032289F8EE21022289F898
:10279000DA21590708D594F8EE21511C84F8EE117E
:1027A0002244032182F8D81113F00A0F14D094F8B0
:1027B000EE310421E21882F8D8115A1CD2B2224418
:1027C000052182F8D811DA1C0233DBB284F8EE213D
:1027D0002344062283F8D821AB689A0608D594F8DA
:1027E000EE21511C84F8EE112244072182F8D81101
:1027F0006A79082A01D00E2A08D194F8EE21511CDA
:1028000084F8EE1122440B2182F8D81194F8EE21BD
:102810004FF00C0EA618511CC9B286F8D8E15E071D
:102820003D4884F8EE1106D5023280F8EE210144CD
:10283000102281F8D82194F8EE214FF0120EA6183C
:1028400086F8D8E195F84061511CC9B2002E0CBF42
:10285000002603F00106304884F8EE1136B102324A
:1028600080F8EE210144132281F8D8219A0508D579
:1028700094F8EE315A1C84F8EE212344152283F893
:10288000D82100219822334808F0EFFC012004F001
:1028900079FA0026002863D0012E61D84FF04C0C45
:1028A0000CFB06FADFF8ACB00BEB0A0999F84A808A
:1028B000B8F1000F02D00136F6B2EBE70179264BF2
:1028C00090F9002003EB810303218DE802011046FB
:1028D000DB6E01214246CDF814C005F08FF9DDF81A
:1028E00014C0034668B1484641466246039308F067
:1028F000BCFC039B4BF80A3001231E4489F84A3084
:10290000F6B2012004F022FAC4E700BFD400002090
:10291000FA08002090160020C00B00208988883C0F
:1029200000002041500000208C16002000100140C3
:10293000BC080020DC0800209409002035FA8E3CF9
:10294000B80900200AE81C4100401C46BD37863506
:1029500090090020B00D00204CDA00080200002091
:1029600003F092FDAA4BAB4AB5F81E011A6081B282
:102970000023A94A99520233242BFAD1AB681B07D2
:1029800040F1D380A54B93F81A31062B00F2C78093
:10299000DFE803F0040432586F8A8A00A04AA14994
:1029A00002F52270012B08609F48A04907D1032639
:1029B0000670072082F88A3208700C2307E0022391
:1029C000037003230B70002382F88A32072382F8F6
:1029D0008832974B4020C4F88C3204F0D3F9002899
:1029E00000F09D8001234FF0000890F90000402185
:1029F0008DE808018F4A39E006F0C0F88E4906F0EC
:102A000011F98E4906F004F806F0F8FA00238C4A12
:102A100098500433482BFAD18A4B4020C4F88C32AA
:102A2000122384F8883204F0ADF9002877D001230E
:102A30004FF0070C90F9000040218DE80810824A01
:102A4000824B66E0824B4020C4F88C32102384F81D
:102A5000883204F097F9002861D001234FF0000E6E
:102A600090F900008DE808407A4A40214FF4E133A4
:102A70004FE0794B4020C4F88C32082384F8883228
:102A800004F080F900284AD00123002690F90000C4
:102A900040218DE84800714A4FF4E13305F0AEF86B
:102AA0005F4BC3F8900236E00C22062B6C4884F88A
:102AB000882210D00023037084F8943284F8953271
:102AC0001B2384F89632052384F8972284F89832E1
:102AD0004FF4E1360DE00021017084F8941284F87F
:102AE0009512604E212184F8961284F8972284F87A
:102AF00098325D4B4020C4F88C3204F043F970B139
:102B000001210023594A90F900008DE80A00402174
:102B1000334605F073F8003018BF012028B90820AB
:102B200004F083FD0023C4F88C32AB685A0405D549
:102B3000082284F888224E4AC4F88C2242F201020C
:102B40001A4003F0010103F400505AB1494BC4F894
:102B50008C3218B1324B082283F8882211B10C2331
:102B600084F8883294F88832043B84F8893204F07F
:102B70007BF9414B18606B79052B03D13F4B4FF428
:102B8000C8721A803E4B4FF47A721A803D4B234D27
:102B90001A7842F008021A703B4B1A7822F00202AF
:102BA0001A70AA6840F6020313401BB305F583733D
:102BB000C4F89C3201F0A1F8282004F02CFA079AFE
:102BC000013A0792F6D194F8A02295F80731B2FBAA
:102BD000F3F301332D4A082B28BF0823137095F80F
:102BE00009219BB25A43A4F8A22295F80821534325
:102BF000A4F8A432264C4FF400437B61237863F0A1
:102C00007F03237019B0BDE8F08F032004F02EFA83
:102C100098060020E601002006080020D4000020CD
:102C2000C00B0020A00600209D060020A406002066
:102C30002D6A00089D6E0008CDCCCC3F0000B0444A
:102C4000EC060020796A0008A96F0008A086010040
:102C5000696A0008356F0008556A0008E96E0008C7
:102C6000EC07002090D00300196A0008F95F000803
:102C7000A56A0008B16A0008FC090020620800206B
:102C8000A01600204C080020A316002054000020AD
:102C90008C1600202DE9F04F8BB009938B4B0792D7
:102CA000B3F90220B3F90030002AB8BF5242002B1A
:102CB000B8BF5B429A42B8BF1A46854BB2F5FA7F5D
:102CC000A8BF4FF4FA721B88029203F00302069227
:102CD00003F0020203F0010392B205930023039074
:102CE00008921E461A46184604931F461946069C2B
:102CF000002C43D0022941D0744C079F155F7C42C1
:102D00006D00A54203DB3C46A542B8BF2C46714D81
:102D1000DDF8249032F905C039F90250CCEB0404F7
:102D200004EB050C039C039F257A642405FB0CF53A
:102D300095FBF4F53C7F6FF004076743BD4205DB6C
:102D400004EB8404A542B4BF2F462746624D5C596C
:102D5000644442F2107C6445A8BF6446DFF894C125
:102D60006445B8BF64465C51039D95F812C00CFBE6
:102D700004F424130494069C012C3FD0574E039D69
:102D8000B65E5248564C86EAE67CACEBE67C0D44D7
:102D9000BCF5206F105E95F8018053F8049021DC9B
:102DA000022918D04FF0500C0CFB00FC9CFBF8F8EB
:102DB0004FF0040C96FBFCF6C6EB0808C144494EE4
:102DC000B9F57A5FA8BF4FF47A59B145ACBF44F862
:102DD0000390E65008E080EAE07CACEBE07CBCF1DC
:102DE000640FDFDD0026E6503D4C1E597D2496FB26
:102DF000F4F4EE7A4025664396FBF5F6089DB5B1EE
:102E0000022960D0DDF808904FF4FA7C09FB00F449
:102E100009FB06F8C9F5FA75DDF8109005FB0744C3
:102E200005FB098594FBFCF495FBFCF506E0059C8D
:102E3000002C48D0022946D0049D3C46DFF89CC0B7
:102E4000DFF8B4B032F80CC04FF004090FFA8CF878
:102E500011F80BB098FBF9FA0BFB0AFA6FF04F0B65
:102E60009AFBFBFAA244204C32F904B022F804C0C9
:102E700004F1080C14341C59CBEB080898FBF9F842
:102E800053F80C90A3460CF10C0443F80490174C33
:102E9000CB440C5DC34404FB0BFB20249BFBF4FBE5
:102EA000CBEB050B0131124DDA44032943F80C80BA
:102EB00022F805A003F1040302F102027FF417AF28
:102EC0000BB0BDE8F08F35460446B7E7000A002096
:102ED000AE080020C4090020301000209A160020FF
:102EE0003408002080C1FFFF680E00202C0B00205A
:102EF0000C0A0020F0D8FFFF260B002037B582888F
:102F00000446836810060D4606D529494FF4B8706B
:102F100091F8A01500FB0133D10504D525490A20FD
:102F2000097800FB013302F03F02042A12D006D8D0
:102F3000012A0DD0022A2FD193F900102DE0102A7A
:102F40000AD0202A0AD0082A26D1B3F9001024E09A
:102F5000197822E0198820E019681EE0694618688F
:102F600003F028FA0146144803F0CAF8F5B1E06806
:102F700005F004FE694603F01DFA01460F4803F010
:102F8000BFF8206905F0FAFD694603F013FA01461F
:102F90000A4803F0B5F809E00021094803F0B0F849
:102FA00025B10848E168226903F0AAF803B030BDF2
:102FB000D4000020AC080020F9E60008F8E600087C
:102FC00000E70008FCE600082DE9F0410024074670
:102FD0002546114B3946E65804EB0308304608F005
:102FE000C1F958B131460D4803F08AF84046002136
:102FF000FFF784FF0A4804F0F7F80135143440F66F
:1030000064239C42E5D125B90648BDE8F04104F0AF
:10301000EBB8BDE8F08100BFCCCD000806E80008A1
:103020002DE7000803E700082DE9F74F054608F0F3
:103030005DF9064620B1012819D12B782A2B16D12B
:10304000A04804F0D1F800249F4BA048E518E158AF
:1030500003F056F828463146FFF750FF9C4804F02D
:10306000C3F8143440F664239C42EDD127E128468E
:103070003D2108F02EF9002800F01C81034613F8CA
:10308000012C202A01D1013BF9E7441C2046C5EB65
:10309000030908F080F90190204602780346202AAF
:1030A00000F10100F9D0092AF7D02D2A02D10346F8
:1030B000884E04E02B2A08BF03464FF07E561F4679
:1030C00000243B4617F8012BA2F1300A5FFA8AF17F
:1030D00009290DD88049204605F0A4FD0446504634
:1030E00005F04CFD0146204605F094FC0446E8E757
:1030F0002E2A18D1DFF8E0A13B4617F8010B303833
:10310000C2B2092A0FD805F039FD514605F03EFE3E
:103110000146204605F07EFC6F490446504605F006
:1031200081FD8246E8E71A7802F0DF02452A3CD1A9
:103130005A782D2A02D10233012704E02B2A14BF2A
:10314000013302330027013B4FF0000A13F8012F2F
:10315000303AD1B2092903D80A2101FB0A2AF5E73E
:10316000BAF59A7F28BF4FF49A7AD3464FF07E5132
:10317000BBF1070F07D90846584905F053FDABF1DD
:10318000080B0146F4E70AF0070ABAF1000F07D06E
:103190000846514905F046FD0AF1FF3A0146F4E7B9
:1031A0002FB1204605F0F2FD04E04FF07E5120469D
:1031B00005F038FD04464FF00008142202FB08F227
:1031C000DFF804B152F80B7002EB0B0A384608F036
:1031D0008DF88446624628463946CDF800C008F08E
:1031E0008DF8DDF800C0002859D15FFA89F26245F8
:1031F00055D12146304605F015FD0446DAF80C009D
:1032000005F0BCFC0146204605F0BEFE002844D077
:10321000DAF8100005F0B2FC0146204605F0AAFEDF
:1032200000283AD0142505FB08B5BAF80420930607
:10323000AA8858BF019C16062146AB6806D52848C7
:103240004FF4B87690F8A00506FB0033D00504D5FE
:1032500024480A26007806FB003302F03F02042AC5
:103260000BD004D8013A012A0CD819700AE0102AB0
:1032700005D0202A05D0082A04D1198002E019605F
:1032800000E01C603946184802F03AFF2846002149
:1032900003B0BDE8F04FFFF731BE144805E008F178
:1032A0000108B8F1850F88D1114803B0BDE8F04F8F
:1032B00003F09ABF284603B0BDE8F04F84E603B0A0
:1032C000BDE8F08F1BE70008CCCD000806E8000839
:1032D0002DE70008000080BF0000204120BCBE4C4C
:1032E000D4000020AC08002030E700083BE70008CD
:1032F00003E700082DE9F041054607F0F7FF304BE2
:1033000004469E6888B92F4803F06EFF2E4B53F891
:10331000241041B10123A340334202D02B4802F0D4
:10332000EFFE0134F2E72A4821E0284629492246E7
:1033300007F0E4FF58B9284803F056FF274C54F82B
:10334000041F0029EFD0214802F0DAFEF7E72B78BE
:1033500000262D2B03BF013504F1FF344FF0010887
:103360004FF00008184B53F8267027B91C48BDE8E9
:10337000F04103F039BF28463946224607F0BEFF28
:10338000D8B90120B040020601D51648EFE7830501
:1033900001D51548EBE7B8F1000F03D004F045F96B
:1033A000124802E004F04AF9114803F01DFF3946C3
:1033B0001048BDE8F04102F0A3BE0136D2E700BFDD
:1033C000D40000205BE7000820DB00086EE700085F
:1033D0002DE700083FE5000872E700081CDB000845
:1033E00087E700089EE70008B0E70008C4E7000888
:1033F000CEE7000841EB000870B50E4620211546C7
:1034000007F067FF0446B8B1441C204607F0C3FF2D
:10341000B0F5617F05DB40F634039842A8BF18463B
:1034200001E04FF461701923A0F5617090FBF3F097
:1034300030702B7801332B702046202107F049FF94
:103440000446B8B1441C204607F0A5FFB0F5617FE3
:1034500005DB40F634039842A8BF184601E04FF45C
:1034600061701923A0F5617090FBF3F070702B78F8
:1034700001332B70204670BDF0B5047885B0074647
:10348000DCB9324B04F11C021B68192003EB8203E8
:10349000591D8D785A79454305F561759B790095DD
:1034A000C978484300F561700190214628480134ED
:1034B00002F026FE282CE4D145E007F06CFF272817
:1034C0003DDC224B00F11C061B68781C03EB8606D2
:1034D000202100238DF80F3007F0FBFE751D0446F8
:1034E00058B1441C204607F056FF152805D87071C6
:1034F0009DF80F3001338DF80F302046202107F062
:10350000E8FE044658B1441C204607F044FF0D284D
:1035100005D89DF80F30687001338DF80F302046C4
:10352000A91C0DF10F02FFF767FF9DF80F30042B68
:1035300009D028460021042207F097FE03E0054841
:10354000282102F0DDFD05B0F0BD00BF68080020B5
:10355000D7E70008ECE70008104B043033F91030CF
:10356000B3F5617F05DB40F633029342A8BF1346F3
:1035700001E04FF4617308781922504300F2833060
:10358000984208DA4878504300F283309842B4BF3A
:103590000020012070470020704700BF060800206F
:1035A00070B5064600240B4BE518AA8816420AD0CF
:1035B000E158094802F0A4FD28460021FFF79EFCCF
:1035C000064803F011FE143440F664239C42EAD10D
:1035D00070BD00BFCCCD000802E800082DE7000850
:1035E000F0B5934C934A23689D8AADB2E9B211F0CD
:1035F000010F36D0198821F400610904090C1980E3
:10360000198889B241F480611980002182F8201064
:10361000894908788949B8B192F8210018B98848D1
:103620000078FF2810D1012082F821008548007819
:10363000022804D1188880B240F40060188009780C
:1036400041F00101198216E1097801F0FE011982A9
:103650007B4B1B78FF2B00F00E81FF2382F820307C
:1036600009E18F0740D5BFF35F8F76490878C0B274
:10367000012816D1704D2D789DB192F8215085B159
:10368000198821F480610904090C1980BFF35F8F48
:10369000198B198882F8220089B241F400711980CF
:1036A0001DE0188BBFF35F8F087802280CD16248A9
:1036B000007848B192F8210030B1198821F4806176
:1036C0000904090C1980D0E00978032907D15A4967
:1036D000097821B192F82110002940F0C68099881C
:1036E00089B241F48061C5E04E0764D5012182F8BA
:1036F00022105149097800293ED092F82110002962
:103700003AD0504992F8200009784F4D0229198883
:103710001FD921F480610904090C19801F8A2E68C1
:10372000C1B2FFB240B23754188880B240F4007082
:1037300018808B1C82F82030236828681D8A01318C
:1037400049B2EDB24554998889B241F480619980BB
:103750002CE089B241F4007119801E8A2D68C1B233
:10376000F6B240B22E541B8A481C40B2DBB2033181
:103770002B5482F8201019E092F8211011B9334926
:10378000097851B1198889B241F40071198092F811
:103790002030013382F8203008E0198889B241F4E2
:1037A00080711980234B012183F8211021680B8837
:1037B000D805FCD45FE001F0400101F0FF0621488C
:1037C00009B32149B3F810C00F6892F820105FFACE
:1037D0008CFCCDB26E1C49B2F6B207F801C082F87B
:1037E0002060077876B2F11C8F4205D1998821F4C8
:1037F00080610904090C99800378B3423BD10235FA
:1038000082F8205037E0290635D592F820104DB2C5
:103810006F1C1FD00E4E01313668C9B2755D82F83B
:103820002010EDB21D82007849B2884223D11CE0FD
:1038300028150020680E00203315002030150020C8
:10384000311500203C1500203815002032150020CD
:1038500034150020144982F820600978C9B2198211
:103860001249097809B9017829B9998821F4806148
:103870000904090C99800E4B92F9201018780D4B11
:10388000421C91420FD1002283F8212093F822306C
:1038900033B12268938823F440731B041B0C93807C
:1038A000054B00221A70F0BD3115002033150020A1
:1038B0003C150020680E00203D150020124B10B56D
:1038C00019684FF47A73B1FBF3F1104B10481A7872
:1038D000104B1B7802F014FC0F4B10481968104B6A
:1038E000B1FBF3F102F00CFC0E4803F07DFCBDE8E7
:1038F00010400D4B0D481A880D4B92B2198840F2BA
:10390000C45302F0FDBB00BF88160020600E0020EB
:103910000CE8000854000020580000204AE8000885
:1039200040420F002DE700082E1500205AE800083D
:10393000FA0900207FB5044607F0D8FC082824D1F6
:1039400000231F49E25C09681144497801F0030132
:10395000022908BF203AE2540133082BF1D1002597
:10396000665D1848314607F0B4FC28B1013560198E
:10397000314607F0AEFC18B1134803F035FC1CE0EB
:10398000082DEDD1204602F09FFB104803F02CFCDF
:1039900000230F4A04A91A4492F812210A44094943
:1039A000595C0133082B02F80C1CF2D100230948A2
:1039B00001A98DF80C3002F0A3FB04B070BD00BF6C
:1039C00064000020CEEA00088CE80008ACE800089B
:1039D000D400002041EB000830B51049104A0C78A3
:1039E000104B84B11C6815680444A54214D31268B6
:1039F00000201A600C4A0870117809B10139117061
:103A000001221A7130BD18681468C830844203D38B
:103A10001268012008701A6030BD00BF6E0B0020D4
:103A2000881600208C0E00206108002037B51D4D3F
:103A30008DF807306B798DF8062002AA8DF8040006
:103A40008DF805101A4412F8042C443AD2B20F2A09
:103A500009D81549022B31F8124008D894B12046F4
:103A6000FFF7BAFF0EE0022B4FF0C804F7D90F4B57
:103A70001A682B68121B934204D20A4A002353711E
:103A80000B4A13702B79012B00D04CB96B79022BA8
:103A900002D8044A01335371064A00232B71137074
:103AA00003B030BD8C0E002000DB0008881600201B
:103AB000610800206E0B002011490B7813F0010FF4
:103AC00003F0040215D0D2B9980712D443F00403CE
:103AD0000B700C4B4FF47A711A880B4B1A800B4BFE
:103AE0000B4A1B6892F8272101FB0232094B1A602E
:103AF000704722B90220FF21012203F096BA7047D5
:103B0000A31600205C080020B208002088160020C0
:103B1000D40000205008002070B5046D0546A3892C
:103B2000866823F400531B041B0CA381837986B0A1
:103B300013F0020F0CBF00204FF4005013F0040FDD
:103B40006B790CBF00214FF4806113F0010F14BF9B
:103B5000042200229B07238A48BF42F008029BB23E
:103B600023F4405340EA03032382A38948BF92B25F
:103B70009BB223F4B05323F00C030B431A43A281EE
:103B8000A38A01A823F440731B041B0CA38202F038
:103B9000B9FD2049049A039B8C4208BF1346A289B1
:103BA0001921594312B2002AB4BF7600B600B1FB06
:103BB000F6F16423B1FBF3F21201100903FB1011BB
:103BC000A08900B2002806DAC9003231B1FBF3F354
:103BD00003F0070305E009013231B1FBF3F303F011
:103BE0000F031A43AB7992B213F0080F2B6D2281A9
:103BF0009A8A03D092B242F0080203E022F008024F
:103C00001204120C9A829A8992B242F400529A815A
:103C100006B070BD0038014041717DE781607BE7EF
:103C2000F8B50468054620460E46174603F051FDD8
:103C3000032845D82B7B9B089AB246B94FF0020C5B
:103C40000CFA03F3A18989B221EA0303A3810A21B3
:103C500001FB00211B4B43F82160043143F8217024
:103C600046B12A7B0225920805FA02F2A1890A438D
:103C700092B2A281282202FB003000F12002EFF371
:103C80001286502383F312880023C1180D6915B1E1
:103C900015600A6904320433102BF6D10023136037
:103CA000F3B283F31188036A23B1A3899BB243F073
:103CB000010304E0A38923F001031B041B0CA3816F
:103CC000F8BD00BF40150020826A8169436B114432
:103CD000D960416A914203D98A1A5A60816204E02C
:103CE00001698A1A5A6000228262002280F8442008
:103CF0001A6842F001021A607047124A91794B1C0F
:103D0000937101F007010023138102EB41025381FB
:103D10001A460D49595A02330A44102B92B2F8D16F
:103D20000A4BD2081B681B7803EB4313534303F57C
:103D30009F4349F6F6727B33B3FBF2F3044A1370E8
:103D4000704700BF8C0E0020960E00205C0E0020F5
:103D5000600E00200D4B0278D9684378C943C1F347
:103D60000221C1F1040103FA01F1094B0901C9B2B1
:103D70001A4482F8001302780120510902F01F0250
:103D800000FA02F243F82120704700BF00ED00E086
:103D900000E100E0254B10B55343254A254C12683D
:103DA0000139B2FBF3F20388013AA04289B292B220
:103DB0009BB212D004F50064A0420ED0B0F1804F47
:103DC0000BD0A4F59834A04207D004F58064A0423B
:103DD00003D004F58064A04202D123F070039BB2AB
:103DE000154CA04206D004F58064A0421CBF23F409
:103DF00040739BB203800F4B8185984202850FD0A0
:103E000003F5006398420BD003F54063984207D056
:103E100003F58063984203D003F58063984201D193
:103E2000002303860123838210BD00BF40420F00A0
:103E300058000020002C0140001000402DE9F74FF1
:103E4000A24F0C46BE7E05461146006891469B4631
:103E50002246731CBB76FFF79DFFAB686868ADF820
:103E6000043018238DF8063001A902238DF807309D
:103E700003F04CFC2B7B1C37360107EB060A2C6841
:103E80000C2B00F2F280DFE813F00D00F000F000E0
:103E9000F0004D00F000F000F0008200F000F000B3
:103EA000F000B600238C8A4823F001031B041B0C8E
:103EB0002384218CA288238B844223F073034FEA4E
:103EC00003434FEA134389B292B243F0700314D014
:103ED00000F50060844210D000F5406084420CD0B0
:103EE00000F58060844208D000F58060844204D0F0
:103EF00021F0020141F0030107E021F00E0122F45C
:103F0000407241F0030142F48072A2802383A4F83E
:103F100034B02184238B23F008031B041B0C43F0D3
:103F2000080332E0238C6A4823F010031B041B0CA7
:103F30002384218CA288238B844223F4E6434FEA16
:103F400003434FEA134389B292B243F4E04308D0EB
:103F500000F50060844204D021F0200141F03001DE
:103F600007E021F0E00122F4406241F0300142F428
:103F70008062A2802383A4F838B02184238B23F4A9
:103F800000631B041B0C43F4006323836DE0238C4C
:103F90004F4823F480731B041B0C2384218CA288BC
:103FA000A38B844223F073034FEA03434FEA134386
:103FB00089B292B243F0700308D000F500608442E9
:103FC00004D021F4007141F4407107E021F46061F4
:103FD00022F4405241F4407142F48052A280A38303
:103FE000A4F83CB02184A38B23F008031B041B0C12
:103FF00043F0080338E0B4F820C0354A2CF4805C64
:104000004FEA0C4C4FEA1C4CA4F820C0B4F820C076
:10401000A388B4F81C802CF4005C28F4E6484FEA2E
:1040200008484FEA0C4C4FEA18484FEA1C4C94429F
:104030009BB248F4E0484CF4405C03D002F50062C7
:10404000944203D123F4804343F48043A380A4F833
:104050001C80A4F840B0A4F820C0A38B23F4006314
:104060001B041B0C43F40063A383AB7B43B1B4F884
:1040700044306FEA43436FEA53439BB2A4F84430A1
:1040800023889BB243F0010323802B7B0C2B14D895
:10409000DFE803F0071313130A1313130D1313139D
:1040A000100004F1340307E004F1380304E004F1E4
:1040B0003C0301E004F14003BB515046AAF80890CC
:1040C000CAF8044003B0BDE8F08F00BF8C0E00209A
:1040D000002C014010B50D4C00211222204607F0A3
:1040E000C4F80B4904220B78A4F59770A37005233C
:1040F000A3712372A373237401234978A3805223ED
:10410000E271E27380F82E31A17210BD020200202C
:104110005C0000202DE9F04FD44C85B00021DFF881
:10412000749340F2C452204607F09FF804F5A87338
:10413000C9F80030CE4B0025CE4A1D7004F2A253C0
:1041400013605E23237001200323637103F076FA6A
:10415000022003F073FA4FF4807003F06FFA4FF40B
:104160001673A4F8F230FA23A4F8F4302A23A4F842
:10417000F0304FF4FA73A4F8F830202384F8F630C6
:104180006E2384F806312B2384F80731232384F827
:1041900009314FF4C87301262122A4F80A314FF0E7
:1041A000000A40F24C4384F8082184F8A055A4F892
:1041B000FC50A4F8FA50A4F8FE5084F8E45084F8B7
:1041C000E55084F8E650A4F8E850A4F8EA50A4F8C2
:1041D000EC5084F8EF5084F8EE6084F8F750A4F8BF
:1041E0000C51A4F8105184F80E6184F8415184F800
:1041F0004051C4F844A1C4F848A184F84C5184F853
:104200004D5184F84E5184F81A51A4F8203140F2EF
:104210006C73A4F82231052384F8273140F27E43E1
:10422000A4F8D03040F23A73A4F8D2304FF47A7345
:10423000A4F8D43040F27E53A4F8D83040F2EA53C8
:10424000A4F8DA3040F2B4531E2119204FF032089E
:1042500040F2DC5BA4F8DC304FF47A5384F81D1193
:1042600084F82801A4F8E03001900291039284F8C8
:104270001B51A4F81EB184F81C5184F8245184F811
:10428000255184F8266184F8296184F82A6184F82C
:104290002B5184F82C61A4F8D6B0A4F8DE80A4F8E1
:1042A000E280FFF717FF40F6AC53A381D9F8003046
:1042B0002827A5734FF0170E5F701D70029983F8C1
:1042C00015E083F816E04FF00F0E83F805E04FF08D
:1042D000220ED972197383F806E055214FF00E0EA5
:1042E000D97083F810E02D214FF0350E9F7059736F
:1042F00083F81AE0DD7583F804809D731D76DD7305
:104300005D7601984FF00A0CD871039A5A205A74BE
:104310005322DA7664221A777822187283F812C050
:104320005F729A7219755449DFF86CE19963D96329
:104330004FF0824199624FF07C5159634F49C3F865
:1043400020E0C3F824E0DFF854E119644C4A4D49F9
:10435000C3F848E04FF04B0EDA621A6359649E7757
:1043600083F84CE084F8A205412084F8A30584F882
:10437000A48584F8A55584F8A955A4F8AAB584F8AD
:10438000A65584F8A75584F8A8559A663E4A042095
:10439000DA663E4A83F85800D9653D48152183F80E
:1043A000607083F861701A67A3F85450A3F85650F0
:1043B000A3F8525083F8641083F87460CDF80CC0F1
:1043C00001F082FED9F800304FF4487283F85F7133
:1043D00083F85D5183F85E5183F8606183F864511E
:1043E000A3F86221C822DDF80CC083F867214FF4DE
:1043F0007A72A3F8682140F2D932A3F86A211D4FDE
:1044000040F6430283F866C1A3F86C2162191035A7
:10441000C02D164EC2F810A0F8D1194606F530701E
:104420004FF4B872039306F017FF039B06F58660FE
:1044300019464FF4B87206F00FFF3B6806F2AC5213
:104440005968186803C2198922F8021B1968C6F84E
:10445000B615596851601B891381012386F8103302
:10446000022386F8803405B0BDE8F08FD400002028
:10447000AC080020A00800208FC2753DCDCC4C3D7B
:104480009A99193F0000A040F6287C3F3D0A773FEB
:10449000C1E80008680800200000204000004040FB
:1044A0000B4A0C4B30B51A600B4B0C4A19600123B8
:1044B000137014460023C25C32B9C1188D78C978D4
:1044C0008D4201D2227030BD0433A02BF3D130BD18
:1044D000A4010020A4080020A8080020000000205B
:1044E0002DE9F04F8BB00993A44B834618880891AF
:1044F000059204F03FFBA24904F094FBA14B049009
:104500001B889B074AD5149B9F499A89B1F90030B3
:1045100040F2E6309B1A03F2F314844203D8002BD6
:10452000B8BF5B4201E04FF4FA73B1F90200801AA0
:1045300000F2F31140F2E632914203D80028B8BFEE
:10454000404201E04FF4FA709BF84C404CB3984263
:10455000B8BF1846C0F5FA7004F010FB8B4904F0A0
:1045600015FC4FF07E5104F053FA0546642090FB91
:10457000F4F004F003FB0146284604F053FB4FF02F
:104580007E5104F047FA0021064604F0E9FC40B9E8
:1045900030464FF07E5104F001FD18B14FF07E56C9
:1045A00000E000264FF07E50049904F0EFFB002459
:1045B0000790D84625462746089B022F3B441B7987
:1045C000734A09D1B2F904000A33584304F0D6FA09
:1045D000704904F0DBFB3DE0059932F905904A4251
:1045E000914503DB0A469145B8BF4A466A49695E70
:1045F000521A0999485F0193104404F0BFFA6749C1
:1046000004F0C4FB5F490246B1F800A0019B1AF018
:10461000010F04D0DBF8441004F004FB1AE003F1AE
:10462000140009FB00F0029204F0A8FA594904F0C2
:10463000ADFB1AF0020F8146029A0CD01046DBF84F
:10464000481004F0EFFA314604F0ECFA014648460F
:1046500004F0E0F98146524B585F04F08FFA514B59
:10466000D96804F0DFFA82465146484604F0D0F992
:10467000D8F82010814604F0D5FA049906904846EF
:1046800004F0D0FAD8F82C1004F0CCFA434904F026
:10469000C9FA454BE15804F0BDF94449814604F09C
:1046A0005FFC38B94846424904F078FC20B1DFF895
:1046B000009101E0DFF8F4903B4B504644F8039042
:1046C0003C4BE158019304F0A3F9019B079944F88E
:1046D00003A0019304F0A6FA019B824603F10C02A9
:1046E00054F802C01833E158604602920193CDF8A5
:1046F0000CC004F08FF9514604F08CF9019BDDF8F1
:104700000CC0029A44F803C044F802A02A4904F0FD
:104710003DFBD8F8381004F085FA2849824604F0A9
:104720001FFC38B95046264904F038FC20B1DFF8A8
:1047300090A001E0DFF884A00698494604F06AF9E9
:10474000514604F065F906F0F5FF1E4BB0F57A7F8F
:10475000A8BF4FF47A709842B8BF184601371A4B79
:10476000032FE85204F1040405F1020508F10408DE
:104770007FF422AF0BB0BDE8F08F00BFFA09002034
:10478000BD378635AE080020060800200000FA4339
:10479000000A002000004842C40900200000204117
:1047A0009A160020E40800204008002000007AC388
:1047B00000007A43680F002000004040000096C3CC
:1047C0000000964318FCFFFF0C0A002008B5037890
:1047D00033B90C4B0C481978BDE8084001F090BC87
:1047E00006F0D9FD02280CD8064B0A221870074B98
:1047F00002FB0030064B0230186002F027FB054830
:10480000E5E708BDAC080020CAE8000874060020EF
:10481000A008002089E30008436A8269D154436AF2
:1048200002690133934228BF00234362436B23B1E3
:104830001B68DB0706D4FFF747BA036DDA6842F05E
:104840008002DA6070470C4BDA6942F0C052DA61DC
:10485000A3F5D0331A68A3F57E7342F48072C3F8CF
:10486000F8234BF207021A8045F2F7021A81034A35
:10487000034BDA60704700BF001002400400FA05E5
:1048800000ED00E010B5094802F0AEFC084B1C68D2
:10489000204602F009FC18B90A2002F0BCFBF7E739
:1048A00001F07AFBBDE81040CDE700BFDBE800086F
:1048B000740B002010B5084802F096FC074B00244A
:1048C0001C70074B1C60074B1C7001F0F9FAFFF7D6
:1048D000D9FF054B1C6010BDE7E800087C0B0020E9
:1048E000780B0020A2160020740B0020026D70B51A
:1048F00015880446ADB2A90613D5036B8BB9C36AFC
:104900001BB1908880B298470BE0E16992884069BA
:104910004E1CD2B2E6614254E169E268914228BF7E
:10492000E3612B0614D5636AA26A9A42236D0BD009
:10493000511CA069A162825CD2B29A80236999421B
:1049400006D30023A36270BDDA6822F08002DA6029
:1049500070BD73B50122044600210068FFF71AFA02
:10496000236801251A88002692B242F001021A80BB
:10497000637B01A88DF804308DF805508DF8066032
:104980008DF80750FFF7E6F9637B1B2B0BD119233A
:1049900001A88DF804308DF805508DF806608DF86B
:1049A0000750FFF7D7F902B070BD524A2DE9F04722
:1049B0009368914613F4804F40F09980D90513D540
:1049C000DA070AD54C4B93F8242093F8256083F836
:1049D0002520B61A18BF012607E042F201061E4044
:1049E000003618BF012600E001260025434BECB23B
:1049F0001B78A3427BD9424B424F1B68DFF81481DE
:104A00002BB9D8F800309B8927F814306DE0D8F81E
:104A10000020072C94BF115D214638489847D9F8EB
:104A20000820D30529D546B3032C334B10D836497B
:104A30000968B1F804C084450AD2C988814207D9FF
:104A40000121A14093F826C041EA0C0183F8261009
:104A500093F826300F2B10D1274B002183F8261016
:104A60002A4BB3F800C00FFA8CFABAF1140FC6BF84
:104A7000ACF1140CA3F800C01980A0F2EE2140F2B2
:104A8000DC5389B2994284BFD8F80030988942F249
:104A9000010313403BB31E4B1978174B01F003027F
:104AA00002EB840293F888C003EB420210851A4699
:104AB000BCF1000F04D1032915D9012183F8881016
:104AC00002EBC403598D188D02EB44020844998D02
:104AD000DB8D0844184480B2A2F88A00042300B297
:104AE00090FBF3F080B227F8140001357EE7BDE8B3
:104AF000F08700BFD4000020680F0020480E00207F
:104B00004C0E00200608002030080020EE07002090
:104B1000FC070020980600202DE9F84301F052F927
:104B200010B90A2002F0A2FA8E4C40F2C45220467C
:104B30008D4906F091FB94F8A0354FF4B872022B22
:104B400084BF002384F8A03594F8A035874D02FB7C
:104B5000034303F5A87393F850202B60022A84BF07
:104B6000002283F8502093F85030814A13700A22B3
:104B700002FB03437F4A03F2A2531360A26842F28E
:104B8000010313403BB944F2080313401BB94FF42F
:104B9000005002F053FDA368D80703D54FF400502E
:104BA00002F043FDA368590409D5082002F03DFD39
:104BB0004FF4005002F039FD012002F036FDA368E9
:104BC0001A0706D54FF4005002F02FFD012002F025
:104BD0002CFDA3689B0413D54FF4004002F025FD83
:104BE000604B93F80E31012B03D14FF4006002F0BB
:104BF0001CFD4FF4803002F018FD402002F015FD3E
:104C00005D4B5E4A9846136000221146A318B3F824
:104C100032315E0806F07736980800F033309E1B7C
:104C2000361AD80800F01130361A06EB261606F0B0
:104C30000F36FF2096FBF0F013F00107304418BF49
:104C4000013100F0FF0018BFC9B2012808D90228BD
:104C500040F08580002F00F0828013F0BC0F7ED0E2
:104C60000832102AD2D10139012978D802F0EEF8A1
:104C700030220021424806F0F8FA2968414F01F13C
:104C80007500FFF70DFC404BA7F126091F602B684C
:104C9000187802F027FB2E683C4B06F5B3721A60B9
:104CA0003B4B00221A803B4B3A1D1A603A4BA7F14E
:104CB0001E021A60394B07F13302C3F80090384BDB
:104CC000384D1A60384B3537C3F80080B4F8F2001D
:104CD000C5F8A47003F04EFFC5F8AC00B4F8F400BA
:104CE00003F048FF96F8583005F1A80285F8A8307F
:104CF00096F87430C5F8B00085F8A93094F82831DA
:104D0000F06D85F8B430294BC5F8B8601A60284BAF
:104D100006F160021A60274903F084FF01464FF054
:104D20007C5004F033F8B6F86241234B18602046FB
:104D300003F024FF0146214804F028F8204903F03D
:104D400071FF204BC5F8C490186006F1640306F2A9
:104D50005D16C5F8BC30C5F8C060BDE8F883FFF744
:104D6000B9F983E7D400002000F8000868080020A3
:104D7000AC080020A0080020E601002098060020D2
:104D80006C080020CA010020FC0800203008002028
:104D9000EE07002064090020F80A0020F00A002035
:104DA000140A0020680F0020F40A00209409002053
:104DB000EC090020DB0F4940DC09002000006144C1
:104DC0004C3D0F44080A00204A4B5E222DE9F34176
:104DD0001A7040F2C4525A80BE221A71EF2283F830
:104DE000C025002283F8C12511461E46B35C01325E
:104DF000594040F2C4539A42F8D13E4B3E4A83F8A0
:104E0000C1153E4B04275A6002F188325A600020D7
:104E1000013F17F0FF075DD0384B3422384CDA6081
:104E2000C4F309037BB1331903F17843A3F5784345
:104E3000D3F800804FF400500023019301F0ACFC44
:104E40000428E5D11BE04FF4302001F0A5FC042834
:104E5000DED12A4D4FF430202B6943F002032B6141
:104E60006C612B6943F040032B6101F095FC2A69CA
:104E700041F6FD73134004282B61D4D0C8E71F4DC1
:104E80004FF400502B6943F001032B611FFA88F3A4
:104E9000238001F081FC042812D1A31C0193019B03
:104EA0004FEA1848A3F800804FF4005001F074FC5A
:104EB0002B6941F6FE721A4004282A6106D0A7E742
:104EC0002B6941F6FE721A402A61A1E70D4B0434AA
:104ED0009C42A5D1094B04281A6942F080021A614C
:104EE00002D100F06FFF10B90A2002F0BFF802B043
:104EF000BDE8F081D4000020230167450020024076
:104F000000F80008C4FD000808B5054802F06CF977
:104F1000FFF700F9FFF758FFBDE80840FFF7B2BC04
:104F200013E9000808B5044802F05EF9FFF74CFFEA
:104F3000BDE80840FFF7A6BC29E9000808B50378DA
:104F40003BB90B4B0B4893F8A015BDE8084001F0A6
:104F5000D7B806F020FA022808D8054B83F8A00538
:104F6000FFF732FFFFF7D8FD0348E8E708BD00BFB1
:104F7000D4000020CEE8000889E300082DE9FF41B5
:104F80004A49054606F07AF94949002828460CBFE7
:104F90000124072406F072F946490028284608BF74
:104FA000022406F06BF9002808BF0424E10747D566
:104FB000414802F019F9002001F07CF93F4802F065
:104FC00013F93F4802F010F93E4802F00DF93E4B4C
:104FD0003E4DD3F808801F4655F8041F19B13C48D0
:104FE00001F08EF8F8E70D463A4B53F8256056B1BC
:104FF0000123AB4013EA080F03D03748314601F0D4
:105000007FF80135F0E7354802F0EEF831467B18BD
:1050100093F8123104AA1344314A8A5C01310829F9
:1050200003F8102CF3D1002369462E488DF8083080
:1050300001F066F82C4801F063F84020FEF7B0FA62
:10504000A2071DD5294802F0CFF8294802F0CCF874
:105050002848FFF773FF284802F0C6F82548FEF7F6
:105060000BFA264802F0C0F8224800F015FE24484A
:1050700002F0BAF81C4801F043F88020FEF790FADD
:1050800063070FD51F4802F0AFF81F4802F0ACF8D5
:105090001848FFF79BFB144801F032F84FF480707A
:1050A000FEF77EFA04B0BDE8F08100BF30E90008E9
:1050B000ECE0000837E900083DE900084BE900088A
:1050C0005DE9000869E90008D40000201CDB000845
:1050D00079E9000820DB000887E9000894E9000866
:1050E000CEEA0008A0E900082DE70008A9E90008B9
:1050F000BCE9000889E30008CAE90008D4E900080F
:10510000E3E90008EFE9000800EA000808B5FFF746
:105110005BFEFFF701FDBDE808400F2014210122CE
:1051200001F083BF2DE9F04F8BB00993A54B059299
:10513000B3F90220B3F90030002AB8BF5242002B65
:10514000B8BF5B429A42B8BF1A469F4BB2F5FA7F8E
:10515000A8BF4FF4FA721B880891009203F0030174
:1051600003F0020203F0010392B2079300230491BB
:10517000069202931A460193039319469A46049C99
:10518000002C37D08F49059D545E694264008C42E3
:1051900003DB29468C42B8BF21468C4CDDF82480C5
:1051A000165F38F902508E1B2E44057A6421754330
:1051B000047F95FBF1F56FF0040161438D4205DB3F
:1051C00004EB8404A542B4BF29462146804D5C59B6
:1051D000344442F21076B442A8BF34467D4EB44205
:1051E000B8BF34465C51857C6C4324130394049C03
:1051F000012C38D0734C784E145FB65E019486EA69
:10520000E67CACEBE67C754C00EB0A05BCF5206F48
:1052100095F801801F5919DCDDF804904FF0500C0F
:105220000CFB09FC9CFBF8FC4FF0040896FBF8F61D
:10523000C6EB0C0637446A4EB7F57A5FA8BF4FF449
:105240007A57B742ACBF1F511E5101E000261E51D4
:10525000624C1E597D2496FBF4F4EE7A402574438B
:1052600094FBF5F50295069CBCB1009EDDF8048028
:10527000DDF80890C6F5FA7506FB08F706FB09F697
:10528000DDF80CC005FB017705FB0C654FF4FA74E3
:1052900097FBF4F795FBF4F506E0079C14B1039D2A
:1052A0000F4601E0029D019F4B4EDFF848B132F8F6
:1052B00006C004240FFA8CF81AF80BB098FBF4F926
:1052C0000BFB09FB6FF04F099BFBF9FBBB44454F00
:1052D00032F9079022F807C0C9EB080807EB040C65
:1052E00007F10C0953F80C6053F8097098FBF4F8B7
:1052F000374443F80C804744DFF8FC80DFF8FCC0FB
:105300001AF808800AF1010A08FB07F74FF0200895
:1053100097FBF8F7EF1B5F44BAF1020F43F80960FF
:1053200022F80C70234402F1020265467FF427AF95
:105330000899244B8A79B3F904300F3252005A434A
:10534000254E5211B6F90430467B93FBF4F4141B3E
:10535000224B002AB8BF5242322A99680BDC06FB66
:105360000411214A9142A8BF1146204A9142ACBF84
:1053700099609A6001E000229A60C27854431C4A06
:10538000A4111278032A0BD9C17DC1F5967189B297
:105390004A42944203DB8C42B4BF22460A4614467A
:1053A0009B686FF0FF0243F34F33B3F5807FA8BFD4
:1053B0004FF480739342ACBFE418A418AC800BB0D8
:1053C000BDE8F08F000A0020AE080020C4090020CC
:1053D00030100020F0D8FFFF9A160020340800207B
:1053E00080C1FFFF38100020FEFFFF0F020000F019
:1053F000A4160020260B00202C0B00200C0A0020F5
:105400002DE9F04F87B005938B4B04911B880392D5
:1054100003F00205ADB2029395B1884BB3F9025087
:10542000B3F90030002DB8BF6D42002BB8BF5B420E
:105430009D42B8BF1D46B5F5007FA8BF4FF400756B
:1054400000231A4619467E4E7C4C965B145F0FFA79
:1054500086FC01968CEAEC77A7EBEC77794E4FF05F
:105460000409B7F5206F4FEA44049CFBF9F953F89F
:1054700006800EDCC9EB0407B844734FB8F57A5FB9
:10548000A8BF4FF47A58B845ACBF43F806809F5187
:1054900001E000279F516B4F4618DF5996F80B80AB
:1054A000FF1108FB07F796F80180029E08FB04F83D
:1054B000B6074FEAA7174FEAA8183FD0DDF80CA0AF
:1054C000CAF10006B44203DB5646B442B8BF2646D2
:1054D0005E4C42F2107A32F904B0CBEB060B059E1B
:1054E000B45E5B4EA3449C595C445445A8BF5446EB
:1054F000DFF87CA15445B8BF54469C51067A90F819
:105500001CA006FB0BFB0AEB8A0A4FEAEB1BCAF155
:105510000006B34503DBD345B4BF5E46564690F85C
:1055200012A0C6EB08080AFB04F424133F1B6F43C8
:1055300005FB08F804EB672706EB6828454CDDF807
:1055400004A0645C04FB09F9434CA8EBA918165F9E
:105550004FF0040922F804A0C6EB0C0C04EB090A76
:105560009CFBF9FC53F80A900C3453F804B043F850
:1055700004903A4CCB44645CE34404FB0BFB0131E4
:10558000374CA7EB6B1BD844022943F80AC022F81A
:10559000048003F1040302F102027FF454AF049982
:1055A000264B8A79B3F904300F3252005A43244B08
:1055B0004FF00409B3F90430521193FBF9F6961B2E
:1055C000204B002AB8BF5242322A9968457B0BDC37
:1055D00005FB0611234A9142A8BF1146224A914277
:1055E000ACBF99609A6001E000229A60C27856438D
:1055F0001E4AB6111278032A0BD9C17DC1F59671E6
:1056000089B24A42964203DB8E42B4BF32460A4612
:1056100016469B686FF0FF0243F34F33B3F5807F6C
:10562000A8BF4FF480739342ACBFF618B618A6809B
:1056300007B0BDE8F08F00BFAE080020000A0020D0
:105640009A1600203408002080C1FFFFC409002002
:1056500030100020260B00204C1000202C0B0020C6
:105660000C0A0020FEFFFF0F020000F0A41600202D
:10567000F0D8FFFF2DE9F04F89B00793534B069107
:10568000B3F9043001920293514B06461B8803F094
:10569000010103F002039BB203934E4B0591B3F853
:1056A00000A04FF6FF714FEA1A13B1FBF3F100238C
:1056B00004911C461946069D022C254495F8048049
:1056C00005D1029A08F11B0757437F112BE03F4D8C
:1056D000019F4A5F7D424FEA420CAC4503DB3D46E9
:1056E000AC45B8BF6546DFF800C1DDF81C9031F964
:1056F0000CC0CCEB050539F901C005EB0C09059D83
:105700006DB908F11B0802FB08F7039A3F1152B16B
:1057100090F812C00CFB09F507EB252703E0077A88
:1057200007FB09F73F112C4DDFF8C08031F905C0A8
:1057300004259CFBF5FCCCEB070C051995F80190B2
:105740000AFB0CF596F80BB053F80870ED120BFB42
:105750000575224FB5F5001FA8BF4FF40015BD42D7
:10576000B8BF3D461E4F43F80850DA5909FB0CF903
:10577000C2EB0C08049A43F807C007F10C0C183769
:1057800053F80CB002FB08F8DA594FEAA818934412
:1057900053F80C20C344DA51777D013407FB0BF733
:1057A0003F1207EBE91707EB65350E4F032C43F863
:1057B0000C80CD5306F1010601F1020103F104034F
:1057C0007FF479AF09B0BDE8F08F00BF000A002078
:1057D000AE080020FA0900209A1600200000E0FF21
:1057E000601000200C0A0020C409002034080020AA
:1057F0002DE9F04F8DB00B93954B05461888079215
:10580000002808BF01200A9103F0B8F991490890D7
:1058100003F008FA9049039003F0FCF8014603985E
:1058200003F0B4FA8D4B09901B88980724D58C4956
:10583000B1F90030B1F9020083EAE372A2EBE3723E
:1058400080EAE071A1EBE0719142ACBF0C461446D6
:10585000B4F5E17F12DA914203DD0028D8BF40425F
:1058600003E0002BCCBF1846584203F087F97D496E
:1058700003F08CFA074603E0002701E04FF07E5763
:1058800000244FF0000926460294CA46764BF35A8C
:1058900018B2069303F072F9744903F0C3F903F0E8
:1058A00087FB03F06BF9724903F0BCF96C4B049071
:1058B000985F03F063F9694B80461B88990705934D
:1058C0005DD0014603F0A6F803F072FB079A53423D
:1058D000984203DB13469842B8BF0346654AB25E5E
:1058E0009B1A0B9A905F184403F048F98146287F71
:1058F00003F040F9604903F095F98346287A03F0F4
:1059000039F90146484603F08DF95C4903F08AF9FC
:1059100003F04EFB82460BF1004003F049FB824549
:1059200005DB584603F044FB8245B8BF504603F000
:1059300025F903998246484603F074F9504BE15823
:1059400003F068F84F49814603F00AFB38B948462E
:105950004D4903F023FB20B1DFF82C9101E0DFF883
:105960002491474BA87C44F8039003F003F90146C7
:10597000484603F057F9454903F054F98146059B21
:10598000DA0700F18F80069ADFF810B113B2002B0E
:10599000B8BF5B42B3F5206F03DD00234BF8043042
:1059A0002BE03B49404603F03DF9029A03462A4466
:1059B0005078009303F0DEF8009B0146184603F090
:1059C000E5F9049903F024F8039903F02BF95BF847
:1059D000041003F01FF82F49834603F0C1FA38B9C9
:1059E00058462D4903F0DAFA20B1DFF8ACB001E0F7
:1059F000DFF8A0B0294B44F803B0029B2B44D87ABF
:105A000003F0B8F8254BE15803F00CF9244903F0F2
:105A100009F9059A8346930746D54046514602F058
:105A2000F7FF0146384603F0FDF80146504602F004
:105A3000F1FF49468046584602F0EAFF01463846E3
:105A400003F0F0F80146484602F0E4FF83462BE0FD
:105A5000FA090020BD378635AF4C593CAE0800200E
:105A6000000A00200000E1439A1600200000A03E3A
:105A7000CDCC4C40C40900200000A0406F12033C74
:105A8000841000200000F0C10000F0410AD7A33DBF
:105A90000000A043000040C3000040434008002035
:105AA0000AD7233CCB46D046029A6E4B985C03F053
:105AB00065F80146049803F0B5F86B4903F0B2F8B5
:105AC0000146404602F0A4FFDFF8C881034654F8BF
:105AD00008100498009302F09BFF039903F056F915
